:100000000C9434000C943E000C943E000C943E0082
:100010000C943E000C943E000C943E000C943E0068
:100020000C943E000C943E000C943E000C943E0058
:100030000C943E000C943E000C943E000C943E0048
:100040000C943E000C943E000C943E000C943E0038
:100050000C943E000C943E000C943E000C943E0028
:100060000C943E000C943E0011241FBECFEFD8E04C
:10007000DEBFCDBF0E9440000C945A010C940000DA
:1000800060E074E081E00E94700060E074E080E075
:100090000E94940009E110E0C2E3D0E002C000E059
:1000A00010E0BE0188E790E00E94BB00B80188E73D
:1000B00090E00E94F2002FEF86E791E0215080400F
:1000C0009040E1F700C000002A96C536D10514F033
:1000D000C0E0D0E00B5F1F4F0536110504F7E1CFFC
:1000E00094B1926094B9882331F0E0E8F0E0808127
:1000F000806C808305C0E0E8F0E0808180688083C8
:10010000E0E8F0E0808182608083E1E8F0E08081D7
:10011000886180836115744031F480818D7F808394
:10012000808184608083089594B1946094B9882319
:1001300031F0E0E8F0E080818063808305C0E0E892
:10014000F0E0808180628083E0E8F0E0808180617F
:100150008083808188608083808182608083611554
:10016000744041F4E1E8F0E080818C7F80838081FD
:10017000846080830895CF93DF93EB01092E000CF8
:10018000AA0BBB0B9C01AD01012E1AE0220F331FFD
:10019000441F551F1A95D1F7102D60E074E284EFCB
:1001A00090E00E942901215031093093870020936B
:1001B0008600C29FC001C39F900DD29F900D112455
:1001C0009C013695279536952795ABE7B4E10E94BB
:1001D0004B01969587959093890080938800DF91D5
:1001E000CF910895CF93DF93EB01092E000CAA0B5A
:1001F000BB0B9C01AD01012E1AE0220F331F441FDF
:10020000551F1A95D1F7102D60E074E284EF90E04D
:100210000E942901215031093093870020938600E4
:10022000C29FC001C39F900DD29F900D11249C01CD
:100230003695279536952795ABE7B4E10E944B019B
:100240009695879590938B0080938A00DF91CF914C
:100250000895A1E21A2EAA1BBB1BFD010DC0AA1F07
:10026000BB1FEE1FFF1FA217B307E407F50720F01F
:10027000A21BB30BE40BF50B661F771F881F991F9A
:100280001A9469F760957095809590959B01AC01E3
:10029000BD01CF010895A29FB001B39FC001A39FEC
:1002A000700D811D1124911DB29F700D811D1124AF
:0802B000911D0895F894FFCFA1
:00000001FF
